{
  "address": "0xFA9C02e56a18E62099bfEa96e3A2060aA7072E68",
  "abi": [
    {
      "inputs": [
        {
          "internalType": "string",
          "name": "name",
          "type": "string"
        },
        {
          "internalType": "string",
          "name": "symbol",
          "type": "string"
        },
        {
          "internalType": "address",
          "name": "vrfCoordinator",
          "type": "address"
        },
        {
          "internalType": "bytes32",
          "name": "keyHash",
          "type": "bytes32"
        },
        {
          "internalType": "uint64",
          "name": "subscriptionId",
          "type": "uint64"
        }
      ],
      "stateMutability": "nonpayable",
      "type": "constructor"
    },
    {
      "inputs": [
        {
          "internalType": "address",
          "name": "have",
          "type": "address"
        },
        {
          "internalType": "address",
          "name": "want",
          "type": "address"
        }
      ],
      "name": "OnlyCoordinatorCanFulfill",
      "type": "error"
    },
    {
      "anonymous": false,
      "inputs": [
        {
          "indexed": true,
          "internalType": "address",
          "name": "owner",
          "type": "address"
        },
        {
          "indexed": true,
          "internalType": "address",
          "name": "approved",
          "type": "address"
        },
        {
          "indexed": true,
          "internalType": "uint256",
          "name": "tokenId",
          "type": "uint256"
        }
      ],
      "name": "Approval",
      "type": "event"
    },
    {
      "anonymous": false,
      "inputs": [
        {
          "indexed": true,
          "internalType": "address",
          "name": "owner",
          "type": "address"
        },
        {
          "indexed": true,
          "internalType": "address",
          "name": "operator",
          "type": "address"
        },
        {
          "indexed": false,
          "internalType": "bool",
          "name": "approved",
          "type": "bool"
        }
      ],
      "name": "ApprovalForAll",
      "type": "event"
    },
    {
      "anonymous": false,
      "inputs": [
        {
          "indexed": true,
          "internalType": "address",
          "name": "from",
          "type": "address"
        },
        {
          "indexed": true,
          "internalType": "address",
          "name": "to",
          "type": "address"
        },
        {
          "indexed": true,
          "internalType": "uint256",
          "name": "tokenId",
          "type": "uint256"
        }
      ],
      "name": "Transfer",
      "type": "event"
    },
    {
      "inputs": [],
      "name": "COORDINATOR",
      "outputs": [
        {
          "internalType": "contract VRFCoordinatorV2Interface",
          "name": "",
          "type": "address"
        }
      ],
      "stateMutability": "view",
      "type": "function"
    },
    {
      "inputs": [
        {
          "internalType": "address",
          "name": "to",
          "type": "address"
        },
        {
          "internalType": "uint256",
          "name": "tokenId",
          "type": "uint256"
        }
      ],
      "name": "approve",
      "outputs": [],
      "stateMutability": "nonpayable",
      "type": "function"
    },
    {
      "inputs": [
        {
          "internalType": "address",
          "name": "owner",
          "type": "address"
        }
      ],
      "name": "balanceOf",
      "outputs": [
        {
          "internalType": "uint256",
          "name": "",
          "type": "uint256"
        }
      ],
      "stateMutability": "view",
      "type": "function"
    },
    {
      "inputs": [],
      "name": "drawCard",
      "outputs": [],
      "stateMutability": "payable",
      "type": "function"
    },
    {
      "inputs": [],
      "name": "drawCost",
      "outputs": [
        {
          "internalType": "uint64",
          "name": "",
          "type": "uint64"
        }
      ],
      "stateMutability": "view",
      "type": "function"
    },
    {
      "inputs": [
        {
          "internalType": "uint256",
          "name": "tokenId",
          "type": "uint256"
        }
      ],
      "name": "getApproved",
      "outputs": [
        {
          "internalType": "address",
          "name": "",
          "type": "address"
        }
      ],
      "stateMutability": "view",
      "type": "function"
    },
    {
      "inputs": [
        {
          "internalType": "address",
          "name": "owner",
          "type": "address"
        },
        {
          "internalType": "address",
          "name": "operator",
          "type": "address"
        }
      ],
      "name": "isApprovedForAll",
      "outputs": [
        {
          "internalType": "bool",
          "name": "",
          "type": "bool"
        }
      ],
      "stateMutability": "view",
      "type": "function"
    },
    {
      "inputs": [
        {
          "internalType": "address",
          "name": "_claimer",
          "type": "address"
        },
        {
          "internalType": "string",
          "name": "_tokenURI",
          "type": "string"
        }
      ],
      "name": "mintCard",
      "outputs": [
        {
          "internalType": "uint256",
          "name": "",
          "type": "uint256"
        }
      ],
      "stateMutability": "nonpayable",
      "type": "function"
    },
    {
      "inputs": [],
      "name": "name",
      "outputs": [
        {
          "internalType": "string",
          "name": "",
          "type": "string"
        }
      ],
      "stateMutability": "view",
      "type": "function"
    },
    {
      "inputs": [
        {
          "internalType": "uint256",
          "name": "tokenId",
          "type": "uint256"
        }
      ],
      "name": "ownerOf",
      "outputs": [
        {
          "internalType": "address",
          "name": "",
          "type": "address"
        }
      ],
      "stateMutability": "view",
      "type": "function"
    },
    {
      "inputs": [
        {
          "internalType": "uint256",
          "name": "requestId",
          "type": "uint256"
        },
        {
          "internalType": "uint256[]",
          "name": "randomWords",
          "type": "uint256[]"
        }
      ],
      "name": "rawFulfillRandomWords",
      "outputs": [],
      "stateMutability": "nonpayable",
      "type": "function"
    },
    {
      "inputs": [
        {
          "internalType": "uint256",
          "name": "",
          "type": "uint256"
        }
      ],
      "name": "requestIds",
      "outputs": [
        {
          "internalType": "address",
          "name": "",
          "type": "address"
        }
      ],
      "stateMutability": "view",
      "type": "function"
    },
    {
      "inputs": [
        {
          "internalType": "address",
          "name": "from",
          "type": "address"
        },
        {
          "internalType": "address",
          "name": "to",
          "type": "address"
        },
        {
          "internalType": "uint256",
          "name": "tokenId",
          "type": "uint256"
        }
      ],
      "name": "safeTransferFrom",
      "outputs": [],
      "stateMutability": "nonpayable",
      "type": "function"
    },
    {
      "inputs": [
        {
          "internalType": "address",
          "name": "from",
          "type": "address"
        },
        {
          "internalType": "address",
          "name": "to",
          "type": "address"
        },
        {
          "internalType": "uint256",
          "name": "tokenId",
          "type": "uint256"
        },
        {
          "internalType": "bytes",
          "name": "_data",
          "type": "bytes"
        }
      ],
      "name": "safeTransferFrom",
      "outputs": [],
      "stateMutability": "nonpayable",
      "type": "function"
    },
    {
      "inputs": [
        {
          "internalType": "address",
          "name": "operator",
          "type": "address"
        },
        {
          "internalType": "bool",
          "name": "approved",
          "type": "bool"
        }
      ],
      "name": "setApprovalForAll",
      "outputs": [],
      "stateMutability": "nonpayable",
      "type": "function"
    },
    {
      "inputs": [
        {
          "internalType": "bytes4",
          "name": "interfaceId",
          "type": "bytes4"
        }
      ],
      "name": "supportsInterface",
      "outputs": [
        {
          "internalType": "bool",
          "name": "",
          "type": "bool"
        }
      ],
      "stateMutability": "view",
      "type": "function"
    },
    {
      "inputs": [],
      "name": "symbol",
      "outputs": [
        {
          "internalType": "string",
          "name": "",
          "type": "string"
        }
      ],
      "stateMutability": "view",
      "type": "function"
    },
    {
      "inputs": [
        {
          "internalType": "uint256",
          "name": "tokenId",
          "type": "uint256"
        }
      ],
      "name": "tokenURI",
      "outputs": [
        {
          "internalType": "string",
          "name": "",
          "type": "string"
        }
      ],
      "stateMutability": "view",
      "type": "function"
    },
    {
      "inputs": [],
      "name": "totalSupply",
      "outputs": [
        {
          "internalType": "uint256",
          "name": "",
          "type": "uint256"
        }
      ],
      "stateMutability": "view",
      "type": "function"
    },
    {
      "inputs": [
        {
          "internalType": "address",
          "name": "from",
          "type": "address"
        },
        {
          "internalType": "address",
          "name": "to",
          "type": "address"
        },
        {
          "internalType": "uint256",
          "name": "tokenId",
          "type": "uint256"
        }
      ],
      "name": "transferFrom",
      "outputs": [],
      "stateMutability": "nonpayable",
      "type": "function"
    },
    {
      "inputs": [
        {
          "internalType": "address",
          "name": "",
          "type": "address"
        }
      ],
      "name": "userRandomWords",
      "outputs": [
        {
          "internalType": "uint256",
          "name": "",
          "type": "uint256"
        }
      ],
      "stateMutability": "view",
      "type": "function"
    },
    {
      "inputs": [],
      "name": "vrfSubscriptionId",
      "outputs": [
        {
          "internalType": "uint64",
          "name": "",
          "type": "uint64"
        }
      ],
      "stateMutability": "view",
      "type": "function"
    }
  ],
  "transactionHash": "0x942796505563bad35b8c8b53e96f64d06f45357c3ab023d4c1ffc75274e0259d",
  "args": [
    "DMagic",
    "DMAGIC",
    "0x6168499c0cffcacd319c818142124b7a15e857ab",
    "0xd89b2bf150e3b9e13446986e571fb9cab24b13cea0a43ea20a6049a85cc807cc",
    1243
  ],
  "numDeployments": 4,
  "solcInputHash": "51b04debc9cde9d409042364e8c58753",
  "bytecode": "0x60a0604052633b9aca00600760006101000a81548167ffffffffffffffff021916908367ffffffffffffffff160217905550611388600b60006101000a81548163ffffffff021916908363ffffffff160217905550620186a0600b60046101000a81548163ffffffff021916908363ffffffff1602179055506003600b60086101000a81548161ffff021916908361ffff160217905550348015620000a357600080fd5b50604051620039bc380380620039bc8339818101604052810190620000c991906200031b565b8285858160009080519060200190620000e4929190620001b4565b508060019080519060200190620000fd929190620001b4565b5050508073ffffffffffffffffffffffffffffffffffffffff1660808173ffffffffffffffffffffffffffffffffffffffff1660601b815250505082600660006101000a81548173ffffffffffffffffffffffffffffffffffffffff021916908373ffffffffffffffffffffffffffffffffffffffff16021790555081600c8190555080600660146101000a81548167ffffffffffffffff021916908367ffffffffffffffff1602179055505050505050620005df565b828054620001c290620004b6565b90600052602060002090601f016020900481019282620001e6576000855562000232565b82601f106200020157805160ff191683800117855562000232565b8280016001018555821562000232579182015b828111156200023157825182559160200191906001019062000214565b5b50905062000241919062000245565b5090565b5b808211156200026057600081600090555060010162000246565b5090565b60006200027b6200027584620003f8565b620003cf565b9050828152602081018484840111156200029457600080fd5b620002a184828562000480565b509392505050565b600081519050620002ba8162000591565b92915050565b600081519050620002d181620005ab565b92915050565b600082601f830112620002e957600080fd5b8151620002fb84826020860162000264565b91505092915050565b6000815190506200031581620005c5565b92915050565b600080600080600060a086880312156200033457600080fd5b600086015167ffffffffffffffff8111156200034f57600080fd5b6200035d88828901620002d7565b955050602086015167ffffffffffffffff8111156200037b57600080fd5b6200038988828901620002d7565b94505060406200039c88828901620002a9565b9350506060620003af88828901620002c0565b9250506080620003c28882890162000304565b9150509295509295909350565b6000620003db620003ee565b9050620003e98282620004ec565b919050565b6000604051905090565b600067ffffffffffffffff82111562000416576200041562000551565b5b620004218262000580565b9050602081019050919050565b60006200043b826200044c565b9050919050565b6000819050919050565b600073ffffffffffffffffffffffffffffffffffffffff82169050919050565b600067ffffffffffffffff82169050919050565b60005b83811015620004a057808201518184015260208101905062000483565b83811115620004b0576000848401525b50505050565b60006002820490506001821680620004cf57607f821691505b60208210811415620004e657620004e562000522565b5b50919050565b620004f78262000580565b810181811067ffffffffffffffff8211171562000519576200051862000551565b5b80604052505050565b7f4e487b7100000000000000000000000000000000000000000000000000000000600052602260045260246000fd5b7f4e487b7100000000000000000000000000000000000000000000000000000000600052604160045260246000fd5b6000601f19601f8301169050919050565b6200059c816200042e565b8114620005a857600080fd5b50565b620005b68162000442565b8114620005c257600080fd5b50565b620005d0816200046c565b8114620005dc57600080fd5b50565b60805160601c6133b7620006056000396000818161087e01526108d201526133b76000f3fe6080604052600436106101355760003560e01c806370a08231116100ab578063c87b56dd1161006f578063c87b56dd14610417578063cd31c8b014610454578063cd7e53cc14610491578063e1a9538c146104ce578063e985e9c5146104f9578063ed647d211461053657610135565b806370a08231146103205780638796ba8c1461035d57806395d89b411461039a578063a22cb465146103c5578063b88d4fde146103ee57610135565b80631fe543e3116100fd5780631fe543e31461023357806323b872dd1461025c5780632f5be23e146102855780633b2bcbf11461028f57806342842e0e146102ba5780636352211e146102e357610135565b806301ffc9a71461013a57806306fdde0314610177578063081812fc146101a2578063095ea7b3146101df57806318160ddd14610208575b600080fd5b34801561014657600080fd5b50610161600480360381019061015c919061224e565b610561565b60405161016e9190612722565b60405180910390f35b34801561018357600080fd5b5061018c610643565b60405161019991906127ab565b60405180910390f35b3480156101ae57600080fd5b506101c960048036038101906101c491906122a0565b6106d5565b6040516101d69190612692565b60405180910390f35b3480156101eb57600080fd5b5061020660048036038101906102019190612212565b61075a565b005b34801561021457600080fd5b5061021d610872565b60405161022a91906129ed565b60405180910390f35b34801561023f57600080fd5b5061025a600480360381019061025591906122f2565b61087c565b005b34801561026857600080fd5b50610283600480360381019061027e91906120b8565b61093c565b005b61028d61099c565b005b34801561029b57600080fd5b506102a4610b79565b6040516102b19190612790565b60405180910390f35b3480156102c657600080fd5b506102e160048036038101906102dc91906120b8565b610b9f565b005b3480156102ef57600080fd5b5061030a600480360381019061030591906122a0565b610bbf565b6040516103179190612692565b60405180910390f35b34801561032c57600080fd5b5061034760048036038101906103429190612053565b610c71565b60405161035491906129ed565b60405180910390f35b34801561036957600080fd5b50610384600480360381019061037f91906122a0565b610d29565b6040516103919190612692565b60405180910390f35b3480156103a657600080fd5b506103af610d5c565b6040516103bc91906127ab565b60405180910390f35b3480156103d157600080fd5b506103ec60048036038101906103e79190612182565b610dee565b005b3480156103fa57600080fd5b5061041560048036038101906104109190612107565b610e04565b005b34801561042357600080fd5b5061043e600480360381019061043991906122a0565b610e66565b60405161044b91906127ab565b60405180910390f35b34801561046057600080fd5b5061047b60048036038101906104769190612053565b610f53565b60405161048891906129ed565b60405180910390f35b34801561049d57600080fd5b506104b860048036038101906104b391906121be565b610f6b565b6040516104c591906129ed565b60405180910390f35b3480156104da57600080fd5b506104e3611162565b6040516104f09190612a08565b60405180910390f35b34801561050557600080fd5b50610520600480360381019061051b919061207c565b61117c565b60405161052d9190612722565b60405180910390f35b34801561054257600080fd5b5061054b611210565b6040516105589190612a08565b60405180910390f35b60007f80ac58cd000000000000000000000000000000000000000000000000000000007bffffffffffffffffffffffffffffffffffffffffffffffffffffffff1916827bffffffffffffffffffffffffffffffffffffffffffffffffffffffff1916148061062c57507f5b5e139f000000000000000000000000000000000000000000000000000000007bffffffffffffffffffffffffffffffffffffffffffffffffffffffff1916827bffffffffffffffffffffffffffffffffffffffffffffffffffffffff1916145b8061063c575061063b8261122a565b5b9050919050565b60606000805461065290612cfa565b80601f016020809104026020016040519081016040528092919081815260200182805461067e90612cfa565b80156106cb5780601f106106a0576101008083540402835291602001916106cb565b820191906000526020600020905b8154815290600101906020018083116106ae57829003601f168201915b5050505050905090565b60006106e082611294565b61071f576040517f08c379a00000000000000000000000000000000000000000000000000000000081526004016107169061294d565b60405180910390fd5b6004600083815260200190815260200160002060009054906101000a900473ffffffffffffffffffffffffffffffffffffffff169050919050565b600061076582610bbf565b90508073ffffffffffffffffffffffffffffffffffffffff168373ffffffffffffffffffffffffffffffffffffffff1614156107d6576040517f08c379a00000000000000000000000000000000000000000000000000000000081526004016107cd906129ad565b60405180910390fd5b8073ffffffffffffffffffffffffffffffffffffffff166107f5611300565b73ffffffffffffffffffffffffffffffffffffffff16148061082457506108238161081e611300565b61117c565b5b610863576040517f08c379a000000000000000000000000000000000000000000000000000000000815260040161085a906128cd565b60405180910390fd5b61086d8383611308565b505050565b6000600d54905090565b7f000000000000000000000000000000000000000000000000000000000000000073ffffffffffffffffffffffffffffffffffffffff163373ffffffffffffffffffffffffffffffffffffffff161461092e57337f00000000000000000000000000000000000000000000000000000000000000006040517f1cf993f40000000000000000000000000000000000000000000000000000000081526004016109259291906126ad565b60405180910390fd5b61093882826113c1565b5050565b61094d610947611300565b826114ac565b61098c576040517f08c379a0000000000000000000000000000000000000000000000000000000008152600401610983906129cd565b60405180910390fd5b61099783838361158a565b505050565b600760009054906101000a900467ffffffffffffffff1667ffffffffffffffff1634146109c857600080fd5b6000600660009054906101000a900473ffffffffffffffffffffffffffffffffffffffff1673ffffffffffffffffffffffffffffffffffffffff16635d3b1d30600c54600660149054906101000a900467ffffffffffffffff16600b60089054906101000a900461ffff16600b60049054906101000a900463ffffffff1660016040518663ffffffff1660e01b8152600401610a6895949392919061273d565b602060405180830381600087803b158015610a8257600080fd5b505af1158015610a96573d6000803e3d6000fd5b505050506040513d601f19601f82011682018060405250810190610aba91906122c9565b9050336008600083815260200190815260200160002060006101000a81548173ffffffffffffffffffffffffffffffffffffffff021916908373ffffffffffffffffffffffffffffffffffffffff1602179055506001600b60009054906101000a900463ffffffff16610b2d9190612b64565b63ffffffff16600960003373ffffffffffffffffffffffffffffffffffffffff1673ffffffffffffffffffffffffffffffffffffffff1681526020019081526020016000208190555050565b600660009054906101000a900473ffffffffffffffffffffffffffffffffffffffff1681565b610bba83838360405180602001604052806000815250610e04565b505050565b6000806002600084815260200190815260200160002060009054906101000a900473ffffffffffffffffffffffffffffffffffffffff169050600073ffffffffffffffffffffffffffffffffffffffff168173ffffffffffffffffffffffffffffffffffffffff161415610c68576040517f08c379a0000000000000000000000000000000000000000000000000000000008152600401610c5f9061290d565b60405180910390fd5b80915050919050565b60008073ffffffffffffffffffffffffffffffffffffffff168273ffffffffffffffffffffffffffffffffffffffff161415610ce2576040517f08c379a0000000000000000000000000000000000000000000000000000000008152600401610cd9906128ed565b60405180910390fd5b600360008373ffffffffffffffffffffffffffffffffffffffff1673ffffffffffffffffffffffffffffffffffffffff168152602001908152602001600020549050919050565b60086020528060005260406000206000915054906101000a900473ffffffffffffffffffffffffffffffffffffffff1681565b606060018054610d6b90612cfa565b80601f0160208091040260200160405190810160405280929190818152602001828054610d9790612cfa565b8015610de45780601f10610db957610100808354040283529160200191610de4565b820191906000526020600020905b815481529060010190602001808311610dc757829003601f168201915b5050505050905090565b610e00610df9611300565b83836117f1565b5050565b610e15610e0f611300565b836114ac565b610e54576040517f08c379a0000000000000000000000000000000000000000000000000000000008152600401610e4b906129cd565b60405180910390fd5b610e608484848461195e565b50505050565b6060610e7182611294565b610eb0576040517f08c379a0000000000000000000000000000000000000000000000000000000008152600401610ea79061298d565b60405180910390fd5b600e60008381526020019081526020016000208054610ece90612cfa565b80601f0160208091040260200160405190810160405280929190818152602001828054610efa90612cfa565b8015610f475780601f10610f1c57610100808354040283529160200191610f47565b820191906000526020600020905b815481529060010190602001808311610f2a57829003601f168201915b50505050509050919050565b60096020528060005260406000206000915090505481565b6000600b60009054906101000a900463ffffffff1663ffffffff16600960008573ffffffffffffffffffffffffffffffffffffffff1673ffffffffffffffffffffffffffffffffffffffff168152602001908152602001600020541115611007576040517f08c379a0000000000000000000000000000000000000000000000000000000008152600401610ffe906127ed565b60405180910390fd5b6000600960008573ffffffffffffffffffffffffffffffffffffffff1673ffffffffffffffffffffffffffffffffffffffff1681526020019081526020016000205411611089576040517f08c379a00000000000000000000000000000000000000000000000000000000081526004016110809061282d565b60405180910390fd5b61109583600d546119ba565b6110a1600d5483611b94565b600960008473ffffffffffffffffffffffffffffffffffffffff1673ffffffffffffffffffffffffffffffffffffffff16815260200190815260200160002054600a6000600d54815260200190815260200160002081905550600d600081548092919061110d90612d5d565b91905055506000600960008573ffffffffffffffffffffffffffffffffffffffff1673ffffffffffffffffffffffffffffffffffffffff16815260200190815260200160002081905550600d54905092915050565b600760009054906101000a900467ffffffffffffffff1681565b6000600560008473ffffffffffffffffffffffffffffffffffffffff1673ffffffffffffffffffffffffffffffffffffffff16815260200190815260200160002060008373ffffffffffffffffffffffffffffffffffffffff1673ffffffffffffffffffffffffffffffffffffffff16815260200190815260200160002060009054906101000a900460ff16905092915050565b600660149054906101000a900467ffffffffffffffff1681565b60007f01ffc9a7000000000000000000000000000000000000000000000000000000007bffffffffffffffffffffffffffffffffffffffffffffffffffffffff1916827bffffffffffffffffffffffffffffffffffffffffffffffffffffffff1916149050919050565b60008073ffffffffffffffffffffffffffffffffffffffff166002600084815260200190815260200160002060009054906101000a900473ffffffffffffffffffffffffffffffffffffffff1673ffffffffffffffffffffffffffffffffffffffff1614159050919050565b600033905090565b816004600083815260200190815260200160002060006101000a81548173ffffffffffffffffffffffffffffffffffffffff021916908373ffffffffffffffffffffffffffffffffffffffff160217905550808273ffffffffffffffffffffffffffffffffffffffff1661137b83610bbf565b73ffffffffffffffffffffffffffffffffffffffff167f8c5be1e5ebec7d5bd14f71427d1e84f3dd0314c0f7b2291e5b200ac8c7c3b92560405160405180910390a45050565b6001600b60009054906101000a900463ffffffff1663ffffffff1682600081518110611416577f4e487b7100000000000000000000000000000000000000000000000000000000600052603260045260246000fd5b60200260200101516114289190612da6565b6114329190612b0e565b600960006008600086815260200190815260200160002060009054906101000a900473ffffffffffffffffffffffffffffffffffffffff1673ffffffffffffffffffffffffffffffffffffffff1673ffffffffffffffffffffffffffffffffffffffff168152602001908152602001600020819055505050565b60006114b782611294565b6114f6576040517f08c379a00000000000000000000000000000000000000000000000000000000081526004016114ed906128ad565b60405180910390fd5b600061150183610bbf565b90508073ffffffffffffffffffffffffffffffffffffffff168473ffffffffffffffffffffffffffffffffffffffff16148061157057508373ffffffffffffffffffffffffffffffffffffffff16611558846106d5565b73ffffffffffffffffffffffffffffffffffffffff16145b806115815750611580818561117c565b5b91505092915050565b8273ffffffffffffffffffffffffffffffffffffffff166115aa82610bbf565b73ffffffffffffffffffffffffffffffffffffffff1614611600576040517f08c379a00000000000000000000000000000000000000000000000000000000081526004016115f79061280d565b60405180910390fd5b600073ffffffffffffffffffffffffffffffffffffffff168273ffffffffffffffffffffffffffffffffffffffff161415611670576040517f08c379a00000000000000000000000000000000000000000000000000000000081526004016116679061286d565b60405180910390fd5b61167b838383611c08565b611686600082611308565b6001600360008573ffffffffffffffffffffffffffffffffffffffff1673ffffffffffffffffffffffffffffffffffffffff16815260200190815260200160002060008282546116d69190612b9e565b925050819055506001600360008473ffffffffffffffffffffffffffffffffffffffff1673ffffffffffffffffffffffffffffffffffffffff168152602001908152602001600020600082825461172d9190612b0e565b92505081905550816002600083815260200190815260200160002060006101000a81548173ffffffffffffffffffffffffffffffffffffffff021916908373ffffffffffffffffffffffffffffffffffffffff160217905550808273ffffffffffffffffffffffffffffffffffffffff168473ffffffffffffffffffffffffffffffffffffffff167fddf252ad1be2c89b69c2b068fc378daa952ba7f163c4a11628f55a4df523b3ef60405160405180910390a46117ec838383611c0d565b505050565b8173ffffffffffffffffffffffffffffffffffffffff168373ffffffffffffffffffffffffffffffffffffffff161415611860576040517f08c379a00000000000000000000000000000000000000000000000000000000081526004016118579061288d565b60405180910390fd5b80600560008573ffffffffffffffffffffffffffffffffffffffff1673ffffffffffffffffffffffffffffffffffffffff16815260200190815260200160002060008473ffffffffffffffffffffffffffffffffffffffff1673ffffffffffffffffffffffffffffffffffffffff16815260200190815260200160002060006101000a81548160ff0219169083151502179055508173ffffffffffffffffffffffffffffffffffffffff168373ffffffffffffffffffffffffffffffffffffffff167f17307eab39ab6107e8899845ad3d59bd9653f200f220920489ca2b5937696c31836040516119519190612722565b60405180910390a3505050565b61196984848461158a565b61197584848484611c12565b6119b4576040517f08c379a00000000000000000000000000000000000000000000000000000000081526004016119ab906127cd565b60405180910390fd5b50505050565b600073ffffffffffffffffffffffffffffffffffffffff168273ffffffffffffffffffffffffffffffffffffffff161415611a2a576040517f08c379a0000000000000000000000000000000000000000000000000000000008152600401611a219061292d565b60405180910390fd5b611a3381611294565b15611a73576040517f08c379a0000000000000000000000000000000000000000000000000000000008152600401611a6a9061284d565b60405180910390fd5b611a7f60008383611c08565b6001600360008473ffffffffffffffffffffffffffffffffffffffff1673ffffffffffffffffffffffffffffffffffffffff1681526020019081526020016000206000828254611acf9190612b0e565b92505081905550816002600083815260200190815260200160002060006101000a81548173ffffffffffffffffffffffffffffffffffffffff021916908373ffffffffffffffffffffffffffffffffffffffff160217905550808273ffffffffffffffffffffffffffffffffffffffff16600073ffffffffffffffffffffffffffffffffffffffff167fddf252ad1be2c89b69c2b068fc378daa952ba7f163c4a11628f55a4df523b3ef60405160405180910390a4611b9060008383611c0d565b5050565b611b9d82611294565b611bdc576040517f08c379a0000000000000000000000000000000000000000000000000000000008152600401611bd39061296d565b60405180910390fd5b80600e60008481526020019081526020016000209080519060200190611c03929190611dcc565b505050565b505050565b505050565b6000611c338473ffffffffffffffffffffffffffffffffffffffff16611da9565b15611d9c578373ffffffffffffffffffffffffffffffffffffffff1663150b7a02611c5c611300565b8786866040518563ffffffff1660e01b8152600401611c7e94939291906126d6565b602060405180830381600087803b158015611c9857600080fd5b505af1925050508015611cc957506040513d601f19601f82011682018060405250810190611cc69190612277565b60015b611d4c573d8060008114611cf9576040519150601f19603f3d011682016040523d82523d6000602084013e611cfe565b606091505b50600081511415611d44576040517f08c379a0000000000000000000000000000000000000000000000000000000008152600401611d3b906127cd565b60405180910390fd5b805181602001fd5b63150b7a0260e01b7bffffffffffffffffffffffffffffffffffffffffffffffffffffffff1916817bffffffffffffffffffffffffffffffffffffffffffffffffffffffff191614915050611da1565b600190505b949350505050565b6000808273ffffffffffffffffffffffffffffffffffffffff163b119050919050565b828054611dd890612cfa565b90600052602060002090601f016020900481019282611dfa5760008555611e41565b82601f10611e1357805160ff1916838001178555611e41565b82800160010185558215611e41579182015b82811115611e40578251825591602001919060010190611e25565b5b509050611e4e9190611e52565b5090565b5b80821115611e6b576000816000905550600101611e53565b5090565b6000611e82611e7d84612a48565b612a23565b90508083825260208201905082856020860282011115611ea157600080fd5b60005b85811015611ed15781611eb78882612029565b845260208401935060208301925050600181019050611ea4565b5050509392505050565b6000611eee611ee984612a74565b612a23565b905082815260208101848484011115611f0657600080fd5b611f11848285612cb8565b509392505050565b6000611f2c611f2784612aa5565b612a23565b905082815260208101848484011115611f4457600080fd5b611f4f848285612cb8565b509392505050565b600081359050611f6681613325565b92915050565b600082601f830112611f7d57600080fd5b8135611f8d848260208601611e6f565b91505092915050565b600081359050611fa58161333c565b92915050565b600081359050611fba81613353565b92915050565b600081519050611fcf81613353565b92915050565b600082601f830112611fe657600080fd5b8135611ff6848260208601611edb565b91505092915050565b600082601f83011261201057600080fd5b8135612020848260208601611f19565b91505092915050565b6000813590506120388161336a565b92915050565b60008151905061204d8161336a565b92915050565b60006020828403121561206557600080fd5b600061207384828501611f57565b91505092915050565b6000806040838503121561208f57600080fd5b600061209d85828601611f57565b92505060206120ae85828601611f57565b9150509250929050565b6000806000606084860312156120cd57600080fd5b60006120db86828701611f57565b93505060206120ec86828701611f57565b92505060406120fd86828701612029565b9150509250925092565b6000806000806080858703121561211d57600080fd5b600061212b87828801611f57565b945050602061213c87828801611f57565b935050604061214d87828801612029565b925050606085013567ffffffffffffffff81111561216a57600080fd5b61217687828801611fd5565b91505092959194509250565b6000806040838503121561219557600080fd5b60006121a385828601611f57565b92505060206121b485828601611f96565b9150509250929050565b600080604083850312156121d157600080fd5b60006121df85828601611f57565b925050602083013567ffffffffffffffff8111156121fc57600080fd5b61220885828601611fff565b9150509250929050565b6000806040838503121561222557600080fd5b600061223385828601611f57565b925050602061224485828601612029565b9150509250929050565b60006020828403121561226057600080fd5b600061226e84828501611fab565b91505092915050565b60006020828403121561228957600080fd5b600061229784828501611fc0565b91505092915050565b6000602082840312156122b257600080fd5b60006122c084828501612029565b91505092915050565b6000602082840312156122db57600080fd5b60006122e98482850161203e565b91505092915050565b6000806040838503121561230557600080fd5b600061231385828601612029565b925050602083013567ffffffffffffffff81111561233057600080fd5b61233c85828601611f6c565b9150509250929050565b61234f81612bd2565b82525050565b61235e81612be4565b82525050565b61236d81612bf0565b82525050565b600061237e82612ad6565b6123888185612aec565b9350612398818560208601612cc7565b6123a181612e93565b840191505092915050565b6123b581612c82565b82525050565b6123c481612ca6565b82525050565b60006123d582612ae1565b6123df8185612afd565b93506123ef818560208601612cc7565b6123f881612e93565b840191505092915050565b6000612410603283612afd565b915061241b82612ea4565b604082019050919050565b6000612433601783612afd565b915061243e82612ef3565b602082019050919050565b6000612456602583612afd565b915061246182612f1c565b604082019050919050565b6000612479600f83612afd565b915061248482612f6b565b602082019050919050565b600061249c601c83612afd565b91506124a782612f94565b602082019050919050565b60006124bf602483612afd565b91506124ca82612fbd565b604082019050919050565b60006124e2601983612afd565b91506124ed8261300c565b602082019050919050565b6000612505602c83612afd565b915061251082613035565b604082019050919050565b6000612528603883612afd565b915061253382613084565b604082019050919050565b600061254b602a83612afd565b9150612556826130d3565b604082019050919050565b600061256e602983612afd565b915061257982613122565b604082019050919050565b6000612591602083612afd565b915061259c82613171565b602082019050919050565b60006125b4602c83612afd565b91506125bf8261319a565b604082019050919050565b60006125d7602c83612afd565b91506125e2826131e9565b604082019050919050565b60006125fa602f83612afd565b915061260582613238565b604082019050919050565b600061261d602183612afd565b915061262882613287565b604082019050919050565b6000612640603183612afd565b915061264b826132d6565b604082019050919050565b61265f81612c26565b82525050565b61266e81612c54565b82525050565b61267d81612c5e565b82525050565b61268c81612c6e565b82525050565b60006020820190506126a76000830184612346565b92915050565b60006040820190506126c26000830185612346565b6126cf6020830184612346565b9392505050565b60006080820190506126eb6000830187612346565b6126f86020830186612346565b6127056040830185612665565b81810360608301526127178184612373565b905095945050505050565b60006020820190506127376000830184612355565b92915050565b600060a0820190506127526000830188612364565b61275f6020830187612683565b61276c6040830186612656565b6127796060830185612674565b61278660808301846123bb565b9695505050505050565b60006020820190506127a560008301846123ac565b92915050565b600060208201905081810360008301526127c581846123ca565b905092915050565b600060208201905081810360008301526127e681612403565b9050919050565b6000602082019050818103600083015261280681612426565b9050919050565b6000602082019050818103600083015261282681612449565b9050919050565b600060208201905081810360008301526128468161246c565b9050919050565b600060208201905081810360008301526128668161248f565b9050919050565b60006020820190508181036000830152612886816124b2565b9050919050565b600060208201905081810360008301526128a6816124d5565b9050919050565b600060208201905081810360008301526128c6816124f8565b9050919050565b600060208201905081810360008301526128e68161251b565b9050919050565b600060208201905081810360008301526129068161253e565b9050919050565b6000602082019050818103600083015261292681612561565b9050919050565b6000602082019050818103600083015261294681612584565b9050919050565b60006020820190508181036000830152612966816125a7565b9050919050565b60006020820190508181036000830152612986816125ca565b9050919050565b600060208201905081810360008301526129a6816125ed565b9050919050565b600060208201905081810360008301526129c681612610565b9050919050565b600060208201905081810360008301526129e681612633565b9050919050565b6000602082019050612a026000830184612665565b92915050565b6000602082019050612a1d6000830184612683565b92915050565b6000612a2d612a3e565b9050612a398282612d2c565b919050565b6000604051905090565b600067ffffffffffffffff821115612a6357612a62612e64565b5b602082029050602081019050919050565b600067ffffffffffffffff821115612a8f57612a8e612e64565b5b612a9882612e93565b9050602081019050919050565b600067ffffffffffffffff821115612ac057612abf612e64565b5b612ac982612e93565b9050602081019050919050565b600081519050919050565b600081519050919050565b600082825260208201905092915050565b600082825260208201905092915050565b6000612b1982612c54565b9150612b2483612c54565b9250827fffffffffffffffffffffffffffffffffffffffffffffffffffffffffffffffff03821115612b5957612b58612dd7565b5b828201905092915050565b6000612b6f82612c5e565b9150612b7a83612c5e565b92508263ffffffff03821115612b9357612b92612dd7565b5b828201905092915050565b6000612ba982612c54565b9150612bb483612c54565b925082821015612bc757612bc6612dd7565b5b828203905092915050565b6000612bdd82612c34565b9050919050565b60008115159050919050565b6000819050919050565b60007fffffffff0000000000000000000000000000000000000000000000000000000082169050919050565b600061ffff82169050919050565b600073ffffffffffffffffffffffffffffffffffffffff82169050919050565b6000819050919050565b600063ffffffff82169050919050565b600067ffffffffffffffff82169050919050565b6000612c8d82612c94565b9050919050565b6000612c9f82612c34565b9050919050565b6000612cb182612c5e565b9050919050565b82818337600083830152505050565b60005b83811015612ce5578082015181840152602081019050612cca565b83811115612cf4576000848401525b50505050565b60006002820490506001821680612d1257607f821691505b60208210811415612d2657612d25612e35565b5b50919050565b612d3582612e93565b810181811067ffffffffffffffff82111715612d5457612d53612e64565b5b80604052505050565b6000612d6882612c54565b91507fffffffffffffffffffffffffffffffffffffffffffffffffffffffffffffffff821415612d9b57612d9a612dd7565b5b600182019050919050565b6000612db182612c54565b9150612dbc83612c54565b925082612dcc57612dcb612e06565b5b828206905092915050565b7f4e487b7100000000000000000000000000000000000000000000000000000000600052601160045260246000fd5b7f4e487b7100000000000000000000000000000000000000000000000000000000600052601260045260246000fd5b7f4e487b7100000000000000000000000000000000000000000000000000000000600052602260045260246000fd5b7f4e487b7100000000000000000000000000000000000000000000000000000000600052604160045260246000fd5b6000601f19601f8301169050919050565b7f4552433732313a207472616e7366657220746f206e6f6e20455243373231526560008201527f63656976657220696d706c656d656e7465720000000000000000000000000000602082015250565b7f6472617720726571756573742069732070656e64696e67000000000000000000600082015250565b7f4552433732313a207472616e736665722066726f6d20696e636f72726563742060008201527f6f776e6572000000000000000000000000000000000000000000000000000000602082015250565b7f6472617720636172642066697273740000000000000000000000000000000000600082015250565b7f4552433732313a20746f6b656e20616c7265616479206d696e74656400000000600082015250565b7f4552433732313a207472616e7366657220746f20746865207a65726f2061646460008201527f7265737300000000000000000000000000000000000000000000000000000000602082015250565b7f4552433732313a20617070726f766520746f2063616c6c657200000000000000600082015250565b7f4552433732313a206f70657261746f7220717565727920666f72206e6f6e657860008201527f697374656e7420746f6b656e0000000000000000000000000000000000000000602082015250565b7f4552433732313a20617070726f76652063616c6c6572206973206e6f74206f7760008201527f6e6572206e6f7220617070726f76656420666f7220616c6c0000000000000000602082015250565b7f4552433732313a2062616c616e636520717565727920666f7220746865207a6560008201527f726f206164647265737300000000000000000000000000000000000000000000602082015250565b7f4552433732313a206f776e657220717565727920666f72206e6f6e657869737460008201527f656e7420746f6b656e0000000000000000000000000000000000000000000000602082015250565b7f4552433732313a206d696e7420746f20746865207a65726f2061646472657373600082015250565b7f4552433732313a20617070726f76656420717565727920666f72206e6f6e657860008201527f697374656e7420746f6b656e0000000000000000000000000000000000000000602082015250565b7f4552433732314d657461646174613a2055524920736574206f66206e6f6e657860008201527f697374656e7420746f6b656e0000000000000000000000000000000000000000602082015250565b7f4552433732314d657461646174613a2055524920717565727920666f72206e6f60008201527f6e6578697374656e7420746f6b656e0000000000000000000000000000000000602082015250565b7f4552433732313a20617070726f76616c20746f2063757272656e74206f776e6560008201527f7200000000000000000000000000000000000000000000000000000000000000602082015250565b7f4552433732313a207472616e736665722063616c6c6572206973206e6f74206f60008201527f776e6572206e6f7220617070726f766564000000000000000000000000000000602082015250565b61332e81612bd2565b811461333957600080fd5b50565b61334581612be4565b811461335057600080fd5b50565b61335c81612bfa565b811461336757600080fd5b50565b61337381612c54565b811461337e57600080fd5b5056fea2646970667358221220088e1928369b69ccdd7bd9a847c40f4ecf6b2fadfa50afeef9ce7e31f0c9fdbb64736f6c63430008040033",
  "devdoc": {
    "kind": "dev",
    "methods": {
      "approve(address,uint256)": {
        "details": "See {IERC721-approve}."
      },
      "balanceOf(address)": {
        "details": "See {IERC721-balanceOf}."
      },
      "getApproved(uint256)": {
        "details": "See {IERC721-getApproved}."
      },
      "isApprovedForAll(address,address)": {
        "details": "See {IERC721-isApprovedForAll}."
      },
      "name()": {
        "details": "See {IERC721Metadata-name}."
      },
      "ownerOf(uint256)": {
        "details": "See {IERC721-ownerOf}."
      },
      "safeTransferFrom(address,address,uint256)": {
        "details": "See {IERC721-safeTransferFrom}."
      },
      "safeTransferFrom(address,address,uint256,bytes)": {
        "details": "See {IERC721-safeTransferFrom}."
      },
      "setApprovalForAll(address,bool)": {
        "details": "See {IERC721-setApprovalForAll}."
      },
      "supportsInterface(bytes4)": {
        "details": "See {IERC165-supportsInterface}."
      },
      "symbol()": {
        "details": "See {IERC721Metadata-symbol}."
      },
      "tokenURI(uint256)": {
        "details": "See {IERC721Metadata-tokenURI}."
      },
      "transferFrom(address,address,uint256)": {
        "details": "See {IERC721-transferFrom}."
      }
    },
    "version": 1
  },
  "userdoc": {
    "kind": "user",
    "methods": {},
    "version": 1
  },
  "storageLayout": {
    "storage": [
      {
        "astId": 172,
        "contract": "contracts/DMagic.sol:DMagic",
        "label": "_name",
        "offset": 0,
        "slot": "0",
        "type": "t_string_storage"
      },
      {
        "astId": 174,
        "contract": "contracts/DMagic.sol:DMagic",
        "label": "_symbol",
        "offset": 0,
        "slot": "1",
        "type": "t_string_storage"
      },
      {
        "astId": 178,
        "contract": "contracts/DMagic.sol:DMagic",
        "label": "_owners",
        "offset": 0,
        "slot": "2",
        "type": "t_mapping(t_uint256,t_address)"
      },
      {
        "astId": 182,
        "contract": "contracts/DMagic.sol:DMagic",
        "label": "_balances",
        "offset": 0,
        "slot": "3",
        "type": "t_mapping(t_address,t_uint256)"
      },
      {
        "astId": 186,
        "contract": "contracts/DMagic.sol:DMagic",
        "label": "_tokenApprovals",
        "offset": 0,
        "slot": "4",
        "type": "t_mapping(t_uint256,t_address)"
      },
      {
        "astId": 192,
        "contract": "contracts/DMagic.sol:DMagic",
        "label": "_operatorApprovals",
        "offset": 0,
        "slot": "5",
        "type": "t_mapping(t_address,t_mapping(t_address,t_bool))"
      },
      {
        "astId": 1741,
        "contract": "contracts/DMagic.sol:DMagic",
        "label": "COORDINATOR",
        "offset": 0,
        "slot": "6",
        "type": "t_contract(VRFCoordinatorV2Interface)146"
      },
      {
        "astId": 1743,
        "contract": "contracts/DMagic.sol:DMagic",
        "label": "vrfSubscriptionId",
        "offset": 20,
        "slot": "6",
        "type": "t_uint64"
      },
      {
        "astId": 1746,
        "contract": "contracts/DMagic.sol:DMagic",
        "label": "drawCost",
        "offset": 0,
        "slot": "7",
        "type": "t_uint64"
      },
      {
        "astId": 1750,
        "contract": "contracts/DMagic.sol:DMagic",
        "label": "requestIds",
        "offset": 0,
        "slot": "8",
        "type": "t_mapping(t_uint256,t_address)"
      },
      {
        "astId": 1754,
        "contract": "contracts/DMagic.sol:DMagic",
        "label": "userRandomWords",
        "offset": 0,
        "slot": "9",
        "type": "t_mapping(t_address,t_uint256)"
      },
      {
        "astId": 1758,
        "contract": "contracts/DMagic.sol:DMagic",
        "label": "tokenCards",
        "offset": 0,
        "slot": "10",
        "type": "t_mapping(t_uint256,t_uint256)"
      },
      {
        "astId": 1761,
        "contract": "contracts/DMagic.sol:DMagic",
        "label": "cardIdLimit",
        "offset": 0,
        "slot": "11",
        "type": "t_uint32"
      },
      {
        "astId": 1764,
        "contract": "contracts/DMagic.sol:DMagic",
        "label": "callbackGasLimit",
        "offset": 4,
        "slot": "11",
        "type": "t_uint32"
      },
      {
        "astId": 1767,
        "contract": "contracts/DMagic.sol:DMagic",
        "label": "requestConfirmations",
        "offset": 8,
        "slot": "11",
        "type": "t_uint16"
      },
      {
        "astId": 1769,
        "contract": "contracts/DMagic.sol:DMagic",
        "label": "vrfKeyHash",
        "offset": 0,
        "slot": "12",
        "type": "t_bytes32"
      },
      {
        "astId": 1771,
        "contract": "contracts/DMagic.sol:DMagic",
        "label": "_tokenIds",
        "offset": 0,
        "slot": "13",
        "type": "t_uint256"
      },
      {
        "astId": 1775,
        "contract": "contracts/DMagic.sol:DMagic",
        "label": "_tokenURIs",
        "offset": 0,
        "slot": "14",
        "type": "t_mapping(t_uint256,t_string_storage)"
      }
    ],
    "types": {
      "t_address": {
        "encoding": "inplace",
        "label": "address",
        "numberOfBytes": "20"
      },
      "t_bool": {
        "encoding": "inplace",
        "label": "bool",
        "numberOfBytes": "1"
      },
      "t_bytes32": {
        "encoding": "inplace",
        "label": "bytes32",
        "numberOfBytes": "32"
      },
      "t_contract(VRFCoordinatorV2Interface)146": {
        "encoding": "inplace",
        "label": "contract VRFCoordinatorV2Interface",
        "numberOfBytes": "20"
      },
      "t_mapping(t_address,t_bool)": {
        "encoding": "mapping",
        "key": "t_address",
        "label": "mapping(address => bool)",
        "numberOfBytes": "32",
        "value": "t_bool"
      },
      "t_mapping(t_address,t_mapping(t_address,t_bool))": {
        "encoding": "mapping",
        "key": "t_address",
        "label": "mapping(address => mapping(address => bool))",
        "numberOfBytes": "32",
        "value": "t_mapping(t_address,t_bool)"
      },
      "t_mapping(t_address,t_uint256)": {
        "encoding": "mapping",
        "key": "t_address",
        "label": "mapping(address => uint256)",
        "numberOfBytes": "32",
        "value": "t_uint256"
      },
      "t_mapping(t_uint256,t_address)": {
        "encoding": "mapping",
        "key": "t_uint256",
        "label": "mapping(uint256 => address)",
        "numberOfBytes": "32",
        "value": "t_address"
      },
      "t_mapping(t_uint256,t_string_storage)": {
        "encoding": "mapping",
        "key": "t_uint256",
        "label": "mapping(uint256 => string)",
        "numberOfBytes": "32",
        "value": "t_string_storage"
      },
      "t_mapping(t_uint256,t_uint256)": {
        "encoding": "mapping",
        "key": "t_uint256",
        "label": "mapping(uint256 => uint256)",
        "numberOfBytes": "32",
        "value": "t_uint256"
      },
      "t_string_storage": {
        "encoding": "bytes",
        "label": "string",
        "numberOfBytes": "32"
      },
      "t_uint16": {
        "encoding": "inplace",
        "label": "uint16",
        "numberOfBytes": "2"
      },
      "t_uint256": {
        "encoding": "inplace",
        "label": "uint256",
        "numberOfBytes": "32"
      },
      "t_uint32": {
        "encoding": "inplace",
        "label": "uint32",
        "numberOfBytes": "4"
      },
      "t_uint64": {
        "encoding": "inplace",
        "label": "uint64",
        "numberOfBytes": "8"
      }
    }
  }
}