{
  "address": "0x48a6516c3dB55cda6557a94AbD6f6c30f5D3dcD0",
  "abi": [
    {
      "inputs": [
        {
          "internalType": "address[]",
          "name": "_users",
          "type": "address[]"
        },
        {
          "internalType": "uint256[]",
          "name": "_allocations",
          "type": "uint256[]"
        },
        {
          "internalType": "address",
          "name": "_token",
          "type": "address"
        }
      ],
      "stateMutability": "nonpayable",
      "type": "constructor"
    },
    {
      "inputs": [
        {
          "internalType": "address",
          "name": "",
          "type": "address"
        }
      ],
      "name": "allocations",
      "outputs": [
        {
          "internalType": "uint256",
          "name": "",
          "type": "uint256"
        }
      ],
      "stateMutability": "view",
      "type": "function"
    },
    {
      "inputs": [],
      "name": "claim",
      "outputs": [],
      "stateMutability": "nonpayable",
      "type": "function"
    },
    {
      "inputs": [
        {
          "internalType": "address",
          "name": "_user",
          "type": "address"
        }
      ],
      "name": "claimable",
      "outputs": [
        {
          "internalType": "uint256",
          "name": "",
          "type": "uint256"
        }
      ],
      "stateMutability": "view",
      "type": "function"
    },
    {
      "inputs": [
        {
          "internalType": "address",
          "name": "",
          "type": "address"
        }
      ],
      "name": "claimed",
      "outputs": [
        {
          "internalType": "uint256",
          "name": "",
          "type": "uint256"
        }
      ],
      "stateMutability": "view",
      "type": "function"
    },
    {
      "inputs": [],
      "name": "start",
      "outputs": [
        {
          "internalType": "uint256",
          "name": "",
          "type": "uint256"
        }
      ],
      "stateMutability": "view",
      "type": "function"
    },
    {
      "inputs": [],
      "name": "startSwap",
      "outputs": [],
      "stateMutability": "nonpayable",
      "type": "function"
    },
    {
      "inputs": [],
      "name": "started",
      "outputs": [
        {
          "internalType": "bool",
          "name": "",
          "type": "bool"
        }
      ],
      "stateMutability": "view",
      "type": "function"
    },
    {
      "inputs": [],
      "name": "token",
      "outputs": [
        {
          "internalType": "contract ERC20",
          "name": "",
          "type": "address"
        }
      ],
      "stateMutability": "view",
      "type": "function"
    },
    {
      "inputs": [],
      "name": "vestingPeriod",
      "outputs": [
        {
          "internalType": "uint256",
          "name": "",
          "type": "uint256"
        }
      ],
      "stateMutability": "view",
      "type": "function"
    }
  ],
  "transactionHash": "0x67fce213dba36d5eecdfad094fa98bee37280cbb9f79df9e39c1077d7adf39a1",
  "args": [
    [
      "0xa4d4a980c5cee392e0bcdeecdca29c8a4a24ac35"
    ],
    [
      "1000000000000000000"
    ],
    "0xD3E1ff95d66b69dEc2bbE4358616548e9f385083"
  ],
  "numDeployments": 3,
  "solcInputHash": "544793aa877bc455cc75860b072a1611",
  "bytecode": "0x60a060405262ed4e006003553480156200001857600080fd5b50604051620012013803806200120183398181016040528101906200003e919062000361565b815183511462000085576040517f08c379a00000000000000000000000000000000000000000000000000000000081526004016200007c9062000410565b60405180910390fd5b60005b83518110156200016d57828181518110620000cc577f4e487b7100000000000000000000000000000000000000000000000000000000600052603260045260246000fd5b602002602001015160008086848151811062000111577f4e487b7100000000000000000000000000000000000000000000000000000000600052603260045260246000fd5b602002602001015173ffffffffffffffffffffffffffffffffffffffff1673ffffffffffffffffffffffffffffffffffffffff16815260200190815260200160002081905550808062000164906200053e565b91505062000088565b5033600460016101000a81548173ffffffffffffffffffffffffffffffffffffffff021916908373ffffffffffffffffffffffffffffffffffffffff1602179055508073ffffffffffffffffffffffffffffffffffffffff1660808173ffffffffffffffffffffffffffffffffffffffff1660601b8152505050505062000658565b60006200020662000200846200045b565b62000432565b905080838252602082019050828560208602820111156200022657600080fd5b60005b858110156200025a57816200023f8882620002d9565b84526020840193506020830192505060018101905062000229565b5050509392505050565b60006200027b62000275846200048a565b62000432565b905080838252602082019050828560208602820111156200029b57600080fd5b60005b85811015620002cf5781620002b488826200034a565b8452602084019350602083019250506001810190506200029e565b5050509392505050565b600081519050620002ea8162000624565b92915050565b600082601f8301126200030257600080fd5b815162000314848260208601620001ef565b91505092915050565b600082601f8301126200032f57600080fd5b81516200034184826020860162000264565b91505092915050565b6000815190506200035b816200063e565b92915050565b6000806000606084860312156200037757600080fd5b600084015167ffffffffffffffff8111156200039257600080fd5b620003a086828701620002f0565b935050602084015167ffffffffffffffff811115620003be57600080fd5b620003cc868287016200031d565b9250506040620003df86828701620002d9565b9150509250925092565b6000620003f8600783620004b9565b91506200040582620005fb565b602082019050919050565b600060208201905081810360008301526200042b81620003e9565b9050919050565b60006200043e62000451565b90506200044c828262000508565b919050565b6000604051905090565b600067ffffffffffffffff821115620004795762000478620005bb565b5b602082029050602081019050919050565b600067ffffffffffffffff821115620004a857620004a7620005bb565b5b602082029050602081019050919050565b600082825260208201905092915050565b6000620004d782620004de565b9050919050565b600073ffffffffffffffffffffffffffffffffffffffff82169050919050565b6000819050919050565b6200051382620005ea565b810181811067ffffffffffffffff82111715620005355762000534620005bb565b5b80604052505050565b60006200054b82620004fe565b91507fffffffffffffffffffffffffffffffffffffffffffffffffffffffffffffffff8214156200058157620005806200058c565b5b600182019050919050565b7f4e487b7100000000000000000000000000000000000000000000000000000000600052601160045260246000fd5b7f4e487b7100000000000000000000000000000000000000000000000000000000600052604160045260246000fd5b6000601f19601f8301169050919050565b7f214c656e67746800000000000000000000000000000000000000000000000000600082015250565b6200062f81620004ca565b81146200063b57600080fd5b50565b6200064981620004fe565b81146200065557600080fd5b50565b60805160601c610b836200067e6000396000818161043a015261062b0152610b836000f3fe608060405234801561001057600080fd5b50600436106100935760003560e01c80637313ee5a116100665780637313ee5a14610120578063be9a65551461013e578063c884ef831461015c578063c992b5b21461018c578063fc0c546a1461019657610093565b80631f2698ab14610098578063402914f5146100b65780634e71d92d146100e657806352a9039c146100f0575b600080fd5b6100a06101b4565b6040516100ad91906107ba565b60405180910390f35b6100d060048036038101906100cb9190610677565b6101c7565b6040516100dd9190610870565b60405180910390f35b6100ee610343565b005b61010a60048036038101906101059190610677565b6104e9565b6040516101179190610870565b60405180910390f35b610128610501565b6040516101359190610870565b60405180910390f35b610146610507565b6040516101539190610870565b60405180910390f35b61017660048036038101906101719190610677565b61050d565b6040516101839190610870565b60405180910390f35b610194610525565b005b61019e610629565b6040516101ab91906107d5565b60405180910390f35b600460009054906101000a900460ff1681565b6000600460009054906101000a900460ff166101e6576000905061033e565b600354600254426101f7919061097d565b111561028d57600160008373ffffffffffffffffffffffffffffffffffffffff1673ffffffffffffffffffffffffffffffffffffffff168152602001908152602001600020546000808473ffffffffffffffffffffffffffffffffffffffff1673ffffffffffffffffffffffffffffffffffffffff16815260200190815260200160002054610286919061097d565b905061033e565b600160008373ffffffffffffffffffffffffffffffffffffffff1673ffffffffffffffffffffffffffffffffffffffff16815260200190815260200160002054600354600254426102de919061097d565b6000808673ffffffffffffffffffffffffffffffffffffffff1673ffffffffffffffffffffffffffffffffffffffff168152602001908152602001600020546103279190610923565b61033191906108f2565b61033b919061097d565b90505b919050565b600460009054906101000a900460ff16610392576040517f08c379a0000000000000000000000000000000000000000000000000000000008152600401610389906107f0565b60405180910390fd5b600061039d336101c7565b9050600081116103e2576040517f08c379a00000000000000000000000000000000000000000000000000000000081526004016103d990610810565b60405180910390fd5b80600160003373ffffffffffffffffffffffffffffffffffffffff1673ffffffffffffffffffffffffffffffffffffffff1681526020019081526020016000206000828254610431919061089c565b925050819055507f000000000000000000000000000000000000000000000000000000000000000073ffffffffffffffffffffffffffffffffffffffff1663a9059cbb33836040518363ffffffff1660e01b8152600401610493929190610791565b602060405180830381600087803b1580156104ad57600080fd5b505af11580156104c1573d6000803e3d6000fd5b505050506040513d601f19601f820116820180604052508101906104e591906106a0565b5050565b60006020528060005260406000206000915090505481565b60035481565b60025481565b60016020528060005260406000206000915090505481565b600460019054906101000a900473ffffffffffffffffffffffffffffffffffffffff1673ffffffffffffffffffffffffffffffffffffffff163373ffffffffffffffffffffffffffffffffffffffff16146105b5576040517f08c379a00000000000000000000000000000000000000000000000000000000081526004016105ac90610830565b60405180910390fd5b600460009054906101000a900460ff1615610605576040517f08c379a00000000000000000000000000000000000000000000000000000000081526004016105fc90610850565b60405180910390fd5b6001600460006101000a81548160ff02191690831515021790555042600281905550565b7f000000000000000000000000000000000000000000000000000000000000000081565b60008135905061065c81610b1f565b92915050565b60008151905061067181610b36565b92915050565b60006020828403121561068957600080fd5b60006106978482850161064d565b91505092915050565b6000602082840312156106b257600080fd5b60006106c084828501610662565b91505092915050565b6106d2816109b1565b82525050565b6106e1816109c3565b82525050565b6106f0816109f9565b82525050565b600061070360088361088b565b915061070e82610a7b565b602082019050919050565b600061072660108361088b565b915061073182610aa4565b602082019050919050565b600061074960088361088b565b915061075482610acd565b602082019050919050565b600061076c60078361088b565b915061077782610af6565b602082019050919050565b61078b816109ef565b82525050565b60006040820190506107a660008301856106c9565b6107b36020830184610782565b9392505050565b60006020820190506107cf60008301846106d8565b92915050565b60006020820190506107ea60008301846106e7565b92915050565b60006020820190508181036000830152610809816106f6565b9050919050565b6000602082019050818103600083015261082981610719565b9050919050565b600060208201905081810360008301526108498161073c565b9050919050565b600060208201905081810360008301526108698161075f565b9050919050565b60006020820190506108856000830184610782565b92915050565b600082825260208201905092915050565b60006108a7826109ef565b91506108b2836109ef565b9250827fffffffffffffffffffffffffffffffffffffffffffffffffffffffffffffffff038211156108e7576108e6610a1d565b5b828201905092915050565b60006108fd826109ef565b9150610908836109ef565b92508261091857610917610a4c565b5b828204905092915050565b600061092e826109ef565b9150610939836109ef565b9250817fffffffffffffffffffffffffffffffffffffffffffffffffffffffffffffffff048311821515161561097257610971610a1d565b5b828202905092915050565b6000610988826109ef565b9150610993836109ef565b9250828210156109a6576109a5610a1d565b5b828203905092915050565b60006109bc826109cf565b9050919050565b60008115159050919050565b600073ffffffffffffffffffffffffffffffffffffffff82169050919050565b6000819050919050565b6000610a0482610a0b565b9050919050565b6000610a16826109cf565b9050919050565b7f4e487b7100000000000000000000000000000000000000000000000000000000600052601160045260246000fd5b7f4e487b7100000000000000000000000000000000000000000000000000000000600052601260045260246000fd5b7f2153746172746564000000000000000000000000000000000000000000000000600082015250565b7f4e6f7468696e6720746f20636c61696d00000000000000000000000000000000600082015250565b7f2143726561746f72000000000000000000000000000000000000000000000000600082015250565b7f5374617274656400000000000000000000000000000000000000000000000000600082015250565b610b28816109b1565b8114610b3357600080fd5b50565b610b3f816109c3565b8114610b4a57600080fd5b5056fea26469706673582212209d4aae85e57e76acfa68a2d8a31bf39ad56bbc8744843af3290967a07dd4ff7664736f6c63430008040033",
  "devdoc": {
    "kind": "dev",
    "methods": {},
    "version": 1
  },
  "userdoc": {
    "kind": "user",
    "methods": {},
    "version": 1
  },
  "storageLayout": {
    "storage": [
      {
        "astId": 722,
        "contract": "contracts/TokenSwap.sol:TokenSwap",
        "label": "allocations",
        "offset": 0,
        "slot": "0",
        "type": "t_mapping(t_address,t_uint256)"
      },
      {
        "astId": 726,
        "contract": "contracts/TokenSwap.sol:TokenSwap",
        "label": "claimed",
        "offset": 0,
        "slot": "1",
        "type": "t_mapping(t_address,t_uint256)"
      },
      {
        "astId": 728,
        "contract": "contracts/TokenSwap.sol:TokenSwap",
        "label": "start",
        "offset": 0,
        "slot": "2",
        "type": "t_uint256"
      },
      {
        "astId": 731,
        "contract": "contracts/TokenSwap.sol:TokenSwap",
        "label": "vestingPeriod",
        "offset": 0,
        "slot": "3",
        "type": "t_uint256"
      },
      {
        "astId": 733,
        "contract": "contracts/TokenSwap.sol:TokenSwap",
        "label": "started",
        "offset": 0,
        "slot": "4",
        "type": "t_bool"
      },
      {
        "astId": 735,
        "contract": "contracts/TokenSwap.sol:TokenSwap",
        "label": "creator",
        "offset": 1,
        "slot": "4",
        "type": "t_address"
      }
    ],
    "types": {
      "t_address": {
        "encoding": "inplace",
        "label": "address",
        "numberOfBytes": "20"
      },
      "t_bool": {
        "encoding": "inplace",
        "label": "bool",
        "numberOfBytes": "1"
      },
      "t_mapping(t_address,t_uint256)": {
        "encoding": "mapping",
        "key": "t_address",
        "label": "mapping(address => uint256)",
        "numberOfBytes": "32",
        "value": "t_uint256"
      },
      "t_uint256": {
        "encoding": "inplace",
        "label": "uint256",
        "numberOfBytes": "32"
      }
    }
  }
}